{
  "contractName": "MyERC20",
  "abi": [
    {
      "inputs": [
        {
          "internalType": "string",
          "name": "_name",
          "type": "string"
        },
        {
          "internalType": "string",
          "name": "_symbol",
          "type": "string"
        },
        {
          "internalType": "uint256",
          "name": "_totalSupply",
          "type": "uint256"
        }
      ],
      "payable": false,
      "stateMutability": "nonpayable",
      "type": "constructor"
    },
    {
      "anonymous": false,
      "inputs": [
        {
          "indexed": false,
          "internalType": "address",
          "name": "Caller",
          "type": "address"
        },
        {
          "indexed": false,
          "internalType": "address",
          "name": "Recipient",
          "type": "address"
        },
        {
          "indexed": false,
          "internalType": "uint256",
          "name": "Amount",
          "type": "uint256"
        }
      ],
      "name": "Transfer",
      "type": "event"
    },
    {
      "constant": true,
      "inputs": [],
      "name": "getName",
      "outputs": [
        {
          "internalType": "string",
          "name": "name",
          "type": "string"
        }
      ],
      "payable": false,
      "stateMutability": "view",
      "type": "function"
    },
    {
      "constant": true,
      "inputs": [],
      "name": "getSymbol",
      "outputs": [
        {
          "internalType": "string",
          "name": "symbol",
          "type": "string"
        }
      ],
      "payable": false,
      "stateMutability": "view",
      "type": "function"
    },
    {
      "constant": true,
      "inputs": [],
      "name": "totalSupply",
      "outputs": [
        {
          "internalType": "uint256",
          "name": "",
          "type": "uint256"
        }
      ],
      "payable": false,
      "stateMutability": "view",
      "type": "function"
    },
    {
      "constant": true,
      "inputs": [
        {
          "internalType": "address",
          "name": "account",
          "type": "address"
        }
      ],
      "name": "balanceOf",
      "outputs": [
        {
          "internalType": "uint256",
          "name": "",
          "type": "uint256"
        }
      ],
      "payable": false,
      "stateMutability": "view",
      "type": "function"
    },
    {
      "constant": false,
      "inputs": [
        {
          "internalType": "address",
          "name": "caller",
          "type": "address"
        },
        {
          "internalType": "address",
          "name": "recipient",
          "type": "address"
        },
        {
          "internalType": "uint256",
          "name": "amount",
          "type": "uint256"
        }
      ],
      "name": "transfer",
      "outputs": [
        {
          "internalType": "bool",
          "name": "",
          "type": "bool"
        }
      ],
      "payable": false,
      "stateMutability": "nonpayable",
      "type": "function"
    }
  ],
  "bytecode": "0x608060405234801561001057600080fd5b50604051610b49380380610b498339818101604052606081101561003357600080fd5b810190808051604051939291908464010000000082111561005357600080fd5b8382019150602082018581111561006957600080fd5b825186600182028301116401000000008211171561008657600080fd5b8083526020830192505050908051906020019080838360005b838110156100ba57808201518184015260208101905061009f565b50505050905090810190601f1680156100e75780820380516001836020036101000a031916815260200191505b506040526020018051604051939291908464010000000082111561010a57600080fd5b8382019150602082018581111561012057600080fd5b825186600182028301116401000000008211171561013d57600080fd5b8083526020830192505050908051906020019080838360005b83811015610171578082015181840152602081019050610156565b50505050905090810190601f16801561019e5780820380516001836020036101000a031916815260200191505b506040526020018051906020019092919050505082600090805190602001906101c89291906102fb565b5081600190805190602001906101df9291906102fb565b508060038190555033600260006101000a81548173ffffffffffffffffffffffffffffffffffffffff021916908373ffffffffffffffffffffffffffffffffffffffff16021790555060035460046000600260009054906101000a900473ffffffffffffffffffffffffffffffffffffffff1673ffffffffffffffffffffffffffffffffffffffff1673ffffffffffffffffffffffffffffffffffffffff168152602001908152602001600020540160046000600260009054906101000a900473ffffffffffffffffffffffffffffffffffffffff1673ffffffffffffffffffffffffffffffffffffffff1673ffffffffffffffffffffffffffffffffffffffff168152602001908152602001600020819055505050506103a0565b828054600181600116156101000203166002900490600052602060002090601f016020900481019282601f1061033c57805160ff191683800117855561036a565b8280016001018555821561036a579182015b8281111561036957825182559160200191906001019061034e565b5b509050610377919061037b565b5090565b61039d91905b80821115610399576000816000905550600101610381565b5090565b90565b61079a806103af6000396000f3fe608060405234801561001057600080fd5b50600436106100575760003560e01c8063150704011461005c57806317d7de7c146100df57806318160ddd1461016257806370a0823114610180578063beabacc8146101d8575b600080fd5b61006461025e565b6040518080602001828103825283818151815260200191508051906020019080838360005b838110156100a4578082015181840152602081019050610089565b50505050905090810190601f1680156100d15780820380516001836020036101000a031916815260200191505b509250505060405180910390f35b6100e7610300565b6040518080602001828103825283818151815260200191508051906020019080838360005b8381101561012757808201518184015260208101905061010c565b50505050905090810190601f1680156101545780820380516001836020036101000a031916815260200191505b509250505060405180910390f35b61016a6103a2565b6040518082815260200191505060405180910390f35b6101c26004803603602081101561019657600080fd5b81019080803573ffffffffffffffffffffffffffffffffffffffff1690602001909291905050506103ac565b6040518082815260200191505060405180910390f35b610244600480360360608110156101ee57600080fd5b81019080803573ffffffffffffffffffffffffffffffffffffffff169060200190929190803573ffffffffffffffffffffffffffffffffffffffff169060200190929190803590602001909291905050506103f5565b604051808215151515815260200191505060405180910390f35b606060018054600181600116156101000203166002900480601f0160208091040260200160405190810160405280929190818152602001828054600181600116156101000203166002900480156102f65780601f106102cb576101008083540402835291602001916102f6565b820191906000526020600020905b8154815290600101906020018083116102d957829003601f168201915b5050505050905090565b606060008054600181600116156101000203166002900480601f0160208091040260200160405190810160405280929190818152602001828054600181600116156101000203166002900480156103985780601f1061036d57610100808354040283529160200191610398565b820191906000526020600020905b81548152906001019060200180831161037b57829003601f168201915b5050505050905090565b6000600354905090565b6000600460008373ffffffffffffffffffffffffffffffffffffffff1673ffffffffffffffffffffffffffffffffffffffff168152602001908152602001600020549050919050565b60008073ffffffffffffffffffffffffffffffffffffffff168473ffffffffffffffffffffffffffffffffffffffff16141561047c576040517f08c379a00000000000000000000000000000000000000000000000000000000081526004018080602001828103825260258152602001806107416025913960400191505060405180910390fd5b600073ffffffffffffffffffffffffffffffffffffffff168373ffffffffffffffffffffffffffffffffffffffff161415610502576040517f08c379a000000000000000000000000000000000000000000000000000000000815260040180806020018281038252602381526020018061071e6023913960400191505060405180910390fd5b600060046000600260009054906101000a900473ffffffffffffffffffffffffffffffffffffffff1673ffffffffffffffffffffffffffffffffffffffff1673ffffffffffffffffffffffffffffffffffffffff1681526020019081526020016000205490506000600460008673ffffffffffffffffffffffffffffffffffffffff1673ffffffffffffffffffffffffffffffffffffffff168152602001908152602001600020549050600084830312156105c257600092505050610716565b83820360046000600260009054906101000a900473ffffffffffffffffffffffffffffffffffffffff1673ffffffffffffffffffffffffffffffffffffffff1673ffffffffffffffffffffffffffffffffffffffff16815260200190815260200160002081905550838101600460008773ffffffffffffffffffffffffffffffffffffffff1673ffffffffffffffffffffffffffffffffffffffff168152602001908152602001600020819055507fddf252ad1be2c89b69c2b068fc378daa952ba7f163c4a11628f55a4df523b3ef868686604051808473ffffffffffffffffffffffffffffffffffffffff1673ffffffffffffffffffffffffffffffffffffffff1681526020018373ffffffffffffffffffffffffffffffffffffffff1673ffffffffffffffffffffffffffffffffffffffff168152602001828152602001935050505060405180910390a16001925050505b939250505056fe45524332303a207472616e7366657220746f20746865207a65726f206164647265737345524332303a207472616e736665722066726f6d20746865207a65726f2061646472657373a265627a7a72315820529f7964f6effbab345bfca0ebddd9246356c6e6366084eee18ac961018e43d664736f6c63430005100032",
  "source": "pragma solidity ^0.5.1;\n\ncontract MyERC20 {\n    string Name;\n    string Symbol;\n    address Owner;\n    uint TotalSupply;\n\n    mapping (address=>uint) balance;\n\n    event Transfer(\n        address Caller,\n        address Recipient,\n        uint Amount\n    );\n\n\n    constructor (string memory _name, string memory _symbol, uint _totalSupply) public {\n        Name = _name;\n        Symbol = _symbol;\n        TotalSupply = _totalSupply;\n        Owner = msg.sender;\n        balance[Owner] = balance[Owner] + TotalSupply;\n    }\n\n    // getName is call function\n    // returns token name\n    function getName() public view returns(string memory name) {\n        return Name;\n    }\n\n    // getSymbol is call function\n    // returns token symbol\n    function getSymbol() public view returns(string memory symbol) {\n        return Symbol;\n    }\n\n    // totalSupply is call\n    // returns total amount of token\n    function totalSupply() public view returns(uint) {\n        return TotalSupply;\n    }\n\n    // balanceOf is call function\n    // params - owner's address\n    // returns balance of the owner\n    function balanceOf(address account) public view returns (uint) {\n        return balance[account];\n    }\n\n    // transfer is send function that moves token from owner to recipient\n    // params - caller address, recipient address, amount of token\n    // returns the success or fail\n    function transfer(address caller, address recipient, uint amount) public returns(bool) {\n        require(caller != address(0), \"ERC20: transfer from the zero address\");\n        require(recipient != address(0), \"ERC20: transfer to the zero address\");\n\n         // get caller amount\n        uint callerAmount = balance[Owner];\n\n        // get recipient amount\n        uint recipientAmount = balance[recipient];\n\n        // check callerAmount result is positive\n        // false인 경우에도 가스가 소모됨. 해결방안은?\n        if (int(callerAmount) - int(amount) < 0) {\n            return false;\n        }\n\n        //calculate amount\n        balance[Owner] = callerAmount - amount;\n        balance[recipient] = recipientAmount + amount;\n\n        // emit Transfer event\n        emit Transfer(caller, recipient, amount);\n        return true;\n    }\n}",
  "sourcePath": "/Users/thkim/workspace/Klaytn/klaytn-MyERC20/contracts/MyERC20.sol",
  "compiler": {
    "name": "solc",
    "version": "0.5.16+commit.9c3226ce.Emscripten.clang"
  },
  "schemaVersion": "3.0.23",
  "updatedAt": "2020-03-24T09:07:23.308Z",
  "networkType": "ethereum",
  "devdoc": {
    "methods": {}
  },
  "userdoc": {
    "methods": {}
  }
}